{
  "_format": "hh-sol-artifact-1",
  "contractName": "SamplePrimarySaleERC721",
  "sourceName": "contracts/SamplePrimarySaleERC721.sol",
  "abi": [
    {
      "inputs": [],
      "stateMutability": "nonpayable",
      "type": "constructor"
    },
    {
      "anonymous": false,
      "inputs": [
        {
          "indexed": true,
          "internalType": "address",
          "name": "previousOwner",
          "type": "address"
        },
        {
          "indexed": true,
          "internalType": "address",
          "name": "newOwner",
          "type": "address"
        }
      ],
      "name": "OwnershipTransferred",
      "type": "event"
    },
    {
      "inputs": [],
      "name": "ALLOCATION",
      "outputs": [
        {
          "internalType": "uint256",
          "name": "",
          "type": "uint256"
        }
      ],
      "stateMutability": "view",
      "type": "function"
    },
    {
      "inputs": [
        {
          "internalType": "address",
          "name": "_address",
          "type": "address"
        }
      ],
      "name": "addToWhitelist",
      "outputs": [],
      "stateMutability": "nonpayable",
      "type": "function"
    },
    {
      "inputs": [
        {
          "internalType": "address",
          "name": "_address",
          "type": "address"
        }
      ],
      "name": "clearMinted",
      "outputs": [],
      "stateMutability": "nonpayable",
      "type": "function"
    },
    {
      "inputs": [],
      "name": "erc20",
      "outputs": [
        {
          "internalType": "contract IERC20",
          "name": "",
          "type": "address"
        }
      ],
      "stateMutability": "view",
      "type": "function"
    },
    {
      "inputs": [],
      "name": "erc20Decimals",
      "outputs": [
        {
          "internalType": "uint256",
          "name": "",
          "type": "uint256"
        }
      ],
      "stateMutability": "view",
      "type": "function"
    },
    {
      "inputs": [],
      "name": "erc721",
      "outputs": [
        {
          "internalType": "contract IIERC721",
          "name": "",
          "type": "address"
        }
      ],
      "stateMutability": "view",
      "type": "function"
    },
    {
      "inputs": [],
      "name": "imx",
      "outputs": [
        {
          "internalType": "address payable",
          "name": "",
          "type": "address"
        }
      ],
      "stateMutability": "view",
      "type": "function"
    },
    {
      "inputs": [],
      "name": "imxShare",
      "outputs": [
        {
          "internalType": "uint256",
          "name": "",
          "type": "uint256"
        }
      ],
      "stateMutability": "view",
      "type": "function"
    },
    {
      "inputs": [],
      "name": "isStarted",
      "outputs": [
        {
          "internalType": "bool",
          "name": "",
          "type": "bool"
        }
      ],
      "stateMutability": "view",
      "type": "function"
    },
    {
      "inputs": [],
      "name": "maxSupply",
      "outputs": [
        {
          "internalType": "uint256",
          "name": "",
          "type": "uint256"
        }
      ],
      "stateMutability": "view",
      "type": "function"
    },
    {
      "inputs": [],
      "name": "mintErc20",
      "outputs": [],
      "stateMutability": "nonpayable",
      "type": "function"
    },
    {
      "inputs": [],
      "name": "mintErc20WL",
      "outputs": [],
      "stateMutability": "nonpayable",
      "type": "function"
    },
    {
      "inputs": [],
      "name": "mintFree",
      "outputs": [],
      "stateMutability": "nonpayable",
      "type": "function"
    },
    {
      "inputs": [],
      "name": "mintFreeWL",
      "outputs": [],
      "stateMutability": "nonpayable",
      "type": "function"
    },
    {
      "inputs": [],
      "name": "mintNative",
      "outputs": [],
      "stateMutability": "payable",
      "type": "function"
    },
    {
      "inputs": [],
      "name": "mintNativeWL",
      "outputs": [],
      "stateMutability": "payable",
      "type": "function"
    },
    {
      "inputs": [
        {
          "internalType": "address",
          "name": "",
          "type": "address"
        }
      ],
      "name": "minted",
      "outputs": [
        {
          "internalType": "uint256",
          "name": "",
          "type": "uint256"
        }
      ],
      "stateMutability": "view",
      "type": "function"
    },
    {
      "inputs": [],
      "name": "owner",
      "outputs": [
        {
          "internalType": "address",
          "name": "",
          "type": "address"
        }
      ],
      "stateMutability": "view",
      "type": "function"
    },
    {
      "inputs": [
        {
          "internalType": "address",
          "name": "_address",
          "type": "address"
        }
      ],
      "name": "removeFromWhitelist",
      "outputs": [],
      "stateMutability": "nonpayable",
      "type": "function"
    },
    {
      "inputs": [],
      "name": "renounceOwnership",
      "outputs": [],
      "stateMutability": "nonpayable",
      "type": "function"
    },
    {
      "inputs": [
        {
          "internalType": "address",
          "name": "_erc20",
          "type": "address"
        },
        {
          "internalType": "uint256",
          "name": "_decimals",
          "type": "uint256"
        }
      ],
      "name": "setErc20",
      "outputs": [],
      "stateMutability": "nonpayable",
      "type": "function"
    },
    {
      "inputs": [
        {
          "internalType": "address",
          "name": "_erc721",
          "type": "address"
        }
      ],
      "name": "setErc721",
      "outputs": [],
      "stateMutability": "nonpayable",
      "type": "function"
    },
    {
      "inputs": [
        {
          "internalType": "address",
          "name": "_imx",
          "type": "address"
        }
      ],
      "name": "setImx",
      "outputs": [],
      "stateMutability": "nonpayable",
      "type": "function"
    },
    {
      "inputs": [],
      "name": "startSale",
      "outputs": [],
      "stateMutability": "nonpayable",
      "type": "function"
    },
    {
      "inputs": [],
      "name": "stopSale",
      "outputs": [],
      "stateMutability": "nonpayable",
      "type": "function"
    },
    {
      "inputs": [],
      "name": "totalMinted",
      "outputs": [
        {
          "internalType": "uint256",
          "name": "",
          "type": "uint256"
        }
      ],
      "stateMutability": "view",
      "type": "function"
    },
    {
      "inputs": [
        {
          "internalType": "address",
          "name": "newOwner",
          "type": "address"
        }
      ],
      "name": "transferOwnership",
      "outputs": [],
      "stateMutability": "nonpayable",
      "type": "function"
    },
    {
      "inputs": [
        {
          "internalType": "address",
          "name": "",
          "type": "address"
        }
      ],
      "name": "whitelist",
      "outputs": [
        {
          "internalType": "bool",
          "name": "",
          "type": "bool"
        }
      ],
      "stateMutability": "view",
      "type": "function"
    },
    {
      "inputs": [],
      "name": "withdrawErc20",
      "outputs": [],
      "stateMutability": "nonpayable",
      "type": "function"
    },
    {
      "inputs": [],
      "name": "withdrawNative",
      "outputs": [],
      "stateMutability": "nonpayable",
      "type": "function"
    },
    {
      "stateMutability": "payable",
      "type": "receive"
    }
  ],
  "bytecode": "0x6080604052600780546001600160a01b0319908116736c443510cf6a4a56341d4ce1aea3b4399a14fbc7179091556002600855600980549091167340b87d235a5b010a20a241f15797c9debf1ecd011790556006600a5534801561006257600080fd5b5061006c33610075565b600180556100c5565b600080546001600160a01b038381166001600160a01b0319831681178455604051919092169283917f8be0079c531659141344cd1fd0a4f28419497f9722a3daafe3b4186f6b6457e09190a35050565b6116d0806100d46000396000f3fe6080604052600436106101d15760003560e01c80638ab53447116100f7578063bca6ce6411610095578063e43252d711610064578063e43252d7146104a8578063ee833bb9146104c8578063f2fde38b146104e8578063f899ccd61461050857600080fd5b8063bca6ce6414610449578063c21b56a614610469578063d5abeb011461047e578063e36b0b371461049357600080fd5b80639b19251a116100d15780639b19251a146103ce578063a2309ff8146103fe578063b66a0e5d14610414578063b836f5671461042957600080fd5b80638ab53447146103865780638da5cb5b1461039b578063987d46fb146103b957600080fd5b806350431ce41161016f578063715018a61161013e578063715018a61461031c578063785e9e8614610331578063889646ea146103515780638ab1d6811461036657600080fd5b806350431ce4146102b5578063544736e6146102ca5780635b888656146102f45780635df953221461031457600080fd5b80632203fb51116101ab5780632203fb511461025f5780633cb5d379146102745780633e3f23591461028a57806348fcf7491461029f57600080fd5b80630f08025f146101dd5780631e7269c51461021a578063219f2fe71461025557600080fd5b366101d857005b600080fd5b3480156101e957600080fd5b506007546101fd906001600160a01b031681565b6040516001600160a01b0390911681526020015b60405180910390f35b34801561022657600080fd5b506102476102353660046113e6565b60056020526000908152604090205481565b604051908152602001610211565b61025d610528565b005b34801561026b57600080fd5b5061025d6106a1565b34801561028057600080fd5b50610247600a5481565b34801561029657600080fd5b5061025d6108a8565b3480156102ab57600080fd5b5061024760085481565b3480156102c157600080fd5b5061025d610afe565b3480156102d657600080fd5b506003546102e49060ff1681565b6040519015158152602001610211565b34801561030057600080fd5b5061025d61030f3660046113e6565b610c1a565b61025d610c9a565b34801561032857600080fd5b5061025d610d6f565b34801561033d57600080fd5b506009546101fd906001600160a01b031681565b34801561035d57600080fd5b50610247600581565b34801561037257600080fd5b5061025d6103813660046113e6565b610d81565b34801561039257600080fd5b5061025d610daa565b3480156103a757600080fd5b506000546001600160a01b03166101fd565b3480156103c557600080fd5b5061025d610ecc565b3480156103da57600080fd5b506102e46103e93660046113e6565b60046020526000908152604090205460ff1681565b34801561040a57600080fd5b5061024760025481565b34801561042057600080fd5b5061025d610f56565b34801561043557600080fd5b5061025d610444366004611408565b611004565b34801561045557600080fd5b506006546101fd906001600160a01b031681565b34801561047557600080fd5b5061025d611080565b34801561048a57600080fd5b5061024760fa81565b34801561049f57600080fd5b5061025d61112a565b3480156104b457600080fd5b5061025d6104c33660046113e6565b611187565b3480156104d457600080fd5b5061025d6104e33660046113e6565b6111b3565b3480156104f457600080fd5b5061025d6105033660046113e6565b6111d5565b34801561051457600080fd5b5061025d6105233660046113e6565b61124e565b6105306112c7565b600354662386f26fc100009060ff166105645760405162461bcd60e51b815260040161055b90611432565b60405180910390fd5b60fa600254106105865760405162461bcd60e51b815260040161055b90611460565b33600090815260056020819052604090912054106105b65760405162461bcd60e51b815260040161055b9061148c565b8034146105f85760405162461bcd60e51b815260206004820152601060248201526f092dce6eaccccd2c6d2cadce840929ab60831b604482015260640161055b565b3360009081526005602052604081208054909190610615906114d1565b9091555060028054600090610629906114d1565b90915550600654600254604051632851206560e21b815233600482015260248101919091526001600160a01b039091169063a144819490604401600060405180830381600087803b15801561067d57600080fd5b505af1158015610691573d6000803e3d6000fd5b505050505061069f60018055565b565b6106a96112c7565b60006064600a54600a6106bc91906115d0565b6106c691906115dc565b60035490915060ff166106eb5760405162461bcd60e51b815260040161055b90611432565b60fa6002541061070d5760405162461bcd60e51b815260040161055b90611460565b336000908152600560208190526040909120541061073d5760405162461bcd60e51b815260040161055b9061148c565b336000908152600560205260408120805490919061075a906114d1565b909155506002805460009061076e906114d1565b909155506009546040516323b872dd60e01b8152336004820152306024820152604481018390526000916001600160a01b0316906323b872dd906064016020604051808303816000875af11580156107ca573d6000803e3d6000fd5b505050506040513d601f19601f820116820180604052508101906107ee91906115fe565b9050806108355760405162461bcd60e51b8152602060048201526015602482015274151bdad95b881d1c985b9cd9995c8819985a5b1959605a1b604482015260640161055b565b600654600254604051632851206560e21b815233600482015260248101919091526001600160a01b039091169063a144819490604401600060405180830381600087803b15801561088557600080fd5b505af1158015610899573d6000803e3d6000fd5b50505050505061069f60018055565b6108b0611320565b6008546009546040516370a0823160e01b8152306004820152606492916001600160a01b0316906370a0823190602401602060405180830381865afa1580156108fd573d6000803e3d6000fd5b505050506040513d601f19601f820116820180604052508101906109219190611620565b61092b9190611639565b61093591906115dc565b60088190556009546040516370a0823160e01b81523060048201526000926001600160a01b039092169163a9059cbb9133919084906370a0823190602401602060405180830381865afa158015610990573d6000803e3d6000fd5b505050506040513d601f19601f820116820180604052508101906109b49190611620565b6109be9190611650565b6040516001600160e01b031960e085901b1681526001600160a01b03909216600483015260248201526044016020604051808303816000875af1158015610a09573d6000803e3d6000fd5b505050506040513d601f19601f82011682018060405250810190610a2d91906115fe565b60095460075460085460405163a9059cbb60e01b81526001600160a01b039283166004820152602481019190915292935060009291169063a9059cbb906044016020604051808303816000875af1158015610a8c573d6000803e3d6000fd5b505050506040513d601f19601f82011682018060405250810190610ab091906115fe565b9050818015610abc5750805b610afa5760405162461bcd60e51b815260206004820152600f60248201526e15da5d1a191c985dc819985a5b1959608a1b604482015260640161055b565b5050565b610b06611320565b606460085447610b169190611639565b610b2091906115dc565b60088190556000903390610b349047611650565b604051600081818185875af1925050503d8060008114610b70576040519150601f19603f3d011682016040523d82523d6000602084013e610b75565b606091505b50506007546008546040519293506000926001600160a01b03909216918381818185875af1925050503d8060008114610bca576040519150601f19603f3d011682016040523d82523d6000602084013e610bcf565b606091505b50509050818015610abc575080610afa5760405162461bcd60e51b815260206004820152600f60248201526e15da5d1a191c985dc819985a5b1959608a1b604482015260640161055b565b610c22611320565b6001600160a01b038116610c785760405162461bcd60e51b815260206004820152601960248201527f496e76616c696420726563697069656e74206164647265737300000000000000604482015260640161055b565b600780546001600160a01b0319166001600160a01b0392909216919091179055565b610ca26112c7565b3360009081526004602052604090205460ff16610cd15760405162461bcd60e51b815260040161055b90611663565b600354662386f26fc100009060ff16610cfc5760405162461bcd60e51b815260040161055b90611432565b60fa60025410610d1e5760405162461bcd60e51b815260040161055b90611460565b803414610d605760405162461bcd60e51b815260206004820152601060248201526f092dce6eaccccd2c6d2cadce840929ab60831b604482015260640161055b565b600260008154610629906114d1565b610d77611320565b61069f600061137a565b610d89611320565b6001600160a01b03166000908152600460205260409020805460ff19169055565b610db26112c7565b60035460ff16610dd45760405162461bcd60e51b815260040161055b90611432565b60fa60025410610df65760405162461bcd60e51b815260040161055b90611460565b3360009081526005602081905260409091205410610e265760405162461bcd60e51b815260040161055b9061148c565b3360009081526005602052604081208054909190610e43906114d1565b9091555060028054600090610e57906114d1565b90915550600654600254604051632851206560e21b815233600482015260248101919091526001600160a01b039091169063a144819490604401600060405180830381600087803b158015610eab57600080fd5b505af1158015610ebf573d6000803e3d6000fd5b5050505061069f60018055565b610ed46112c7565b3360009081526004602052604090205460ff16610f035760405162461bcd60e51b815260040161055b90611663565b60035460ff16610f255760405162461bcd60e51b815260040161055b90611432565b60fa60025410610f475760405162461bcd60e51b815260040161055b90611460565b600260008154610e57906114d1565b610f5e611320565b60035460ff1615610fa85760405162461bcd60e51b815260206004820152601460248201527314d85b1948185b1c9958591e481cdd185c9d195960621b604482015260640161055b565b6006546001600160a01b0316610ff55760405162461bcd60e51b81526020600482015260126024820152714e6f2045524337323120666f722073616c6560701b604482015260640161055b565b6003805460ff19166001179055565b61100c611320565b6001600160a01b03821661105b5760405162461bcd60e51b8152602060048201526016602482015275496e76616c696420455243373231206164647265737360501b604482015260640161055b565b600a55600980546001600160a01b0319166001600160a01b0392909216919091179055565b6110886112c7565b3360009081526004602052604090205460ff166110b75760405162461bcd60e51b815260040161055b90611663565b60006064600a54600a6110ca91906115d0565b6110d491906115dc565b60035490915060ff166110f95760405162461bcd60e51b815260040161055b90611432565b60fa6002541061111b5760405162461bcd60e51b815260040161055b90611460565b60026000815461076e906114d1565b611132611320565b60035460ff1661117b5760405162461bcd60e51b815260206004820152601460248201527314d85b1948185b1c9958591e481cdd1bdc1c195960621b604482015260640161055b565b6003805460ff19169055565b61118f611320565b6001600160a01b03166000908152600460205260409020805460ff19166001179055565b6111bb611320565b6001600160a01b0316600090815260056020526040812055565b6111dd611320565b6001600160a01b0381166112425760405162461bcd60e51b815260206004820152602660248201527f4f776e61626c653a206e6577206f776e657220697320746865207a65726f206160448201526564647265737360d01b606482015260840161055b565b61124b8161137a565b50565b611256611320565b6001600160a01b0381166112a55760405162461bcd60e51b8152602060048201526016602482015275496e76616c696420455243373231206164647265737360501b604482015260640161055b565b600680546001600160a01b0319166001600160a01b0392909216919091179055565b6002600154036113195760405162461bcd60e51b815260206004820152601f60248201527f5265656e7472616e637947756172643a207265656e7472616e742063616c6c00604482015260640161055b565b6002600155565b6000546001600160a01b0316331461069f5760405162461bcd60e51b815260206004820181905260248201527f4f776e61626c653a2063616c6c6572206973206e6f7420746865206f776e6572604482015260640161055b565b600080546001600160a01b038381166001600160a01b0319831681178455604051919092169283917f8be0079c531659141344cd1fd0a4f28419497f9722a3daafe3b4186f6b6457e09190a35050565b80356001600160a01b03811681146113e157600080fd5b919050565b6000602082840312156113f857600080fd5b611401826113ca565b9392505050565b6000806040838503121561141b57600080fd5b611424836113ca565b946020939093013593505050565b60208082526014908201527314d85b19481a185cc81b9bdd081cdd185c9d195960621b604082015260600190565b602080825260129082015271135a5b9d081b1a5b5a5d081c995858da195960721b604082015260600190565b6020808252601590820152744d696e74656420746f6f206d616e792074696d657360581b604082015260600190565b634e487b7160e01b600052601160045260246000fd5b6000600182016114e3576114e36114bb565b5060010190565b600181815b8085111561152557816000190482111561150b5761150b6114bb565b8085161561151857918102915b93841c93908002906114ef565b509250929050565b60008261153c575060016115ca565b81611549575060006115ca565b816001811461155f576002811461156957611585565b60019150506115ca565b60ff84111561157a5761157a6114bb565b50506001821b6115ca565b5060208310610133831016604e8410600b84101617156115a8575081810a6115ca565b6115b283836114ea565b80600019048211156115c6576115c66114bb565b0290505b92915050565b6000611401838361152d565b6000826115f957634e487b7160e01b600052601260045260246000fd5b500490565b60006020828403121561161057600080fd5b8151801515811461140157600080fd5b60006020828403121561163257600080fd5b5051919050565b80820281158282048414176115ca576115ca6114bb565b818103818111156115ca576115ca6114bb565b60208082526017908201527f55736572206973206e6f742077686974656c697374656400000000000000000060408201526060019056fea26469706673582212207f339a43f86b37db3266fd5552519a25314fcd7017704805ecef8b8449c4e6a864736f6c63430008140033",
  "linkReferences": {},
  "deployedLinkReferences": {}
}